:4000000000800020110000009D0400009D04000010B500F063FAC04670B5294D12232B6000F0D0FC012000F0EDFC182000F0E4FB244A254B1A60254A116802230B43136077
:40004000234A244B1A600024234B1C60234A136808218B431360FA20C00000F07FFC204800F0C0FB1F4A204B1A60204B204A1A60802189001F4A11601F4A1A609B21090227
:400080001E4A11601E4A1A60802212061D4B1A601D4B1C6042221D4B1A60023A1C4B1A6001321C4B1A601C49082000F071FB082000F062FB194B1C6011232B6070BDC0465E
:4000C000300010400600008004010B4078002E402D3E00007C002E4064F02E406CF02E40DC050000005FEA00080301400000014042FF00800003014040FF00800403014020
:4001000041FF008008010B4000010B403801014030010140040101401D0B00000C020B4070B572B60022374B1A600132364B1A7000240FE035486200131959000B00411828
:4001400089881A5AC31858880004104300F09CF90134E4B2022CEDD9002411E02B4EA2001319590071188D8AC88A000428430A8B498B09041143802200F08CF90134E4B2E2
:40018000002CEBD02149203121485C3000F052F9204A214B1A60214A214B1A6099231B04204A1360A221C9051F4A11601F4A1360D022D2031E4B1A6002231E4A13601E4ABB
:4001C00013601E490B783C22934314221343DBB20B701B4A117816230B43DBB213702023184A13601849194A11602921184A11601849194A1160194A1360FFF70DFF00F0EE
:4002000033F970BD6CF02E401C700F40001D0000801E0000000030EE00000240033099000001024000500F4008500F4010500F4018500F402000104000800F4001700F40EB
:4002400000700F4000000440B60DDB000800044000010440061C0300080104401801044010B5064C2378002B07D1054B002B02D0044800E000BF0123237010BD5801002093
:4002800000000000E01C0000084B10B5002B03D00749084800E000BF07480368002B00D110BD064B002BFBD09847F9E7000000005C010020E01C0000C0000020000000000B
:4002C00010B5064C23785B00054A985A00F0A4FC2378013303221340237010BD74010020C4000020F8B54F464646C0B4071E02DB0023984601E0012398464346002B00D054
:400300007F42002418E01C4D630099465E5BFF239E434B465E530A21380000F099FE174B5B5C1E434B465E530A21380000F0AAFD071E03D00134E4B2032CE4D90134E4B21D
:40034000230007E00C495800465AFF22324342520133DBB2032BF5D94346002B07D006496400635AFF229343FD22134363520CBC90469946F8BDC046C4000020E41C000007
:4003800010B584B000226B46DA7162B6012000F0BBF9012000F0C4F9012000F0CDF9012000F0D6F900F0F8F800F080FC1D4800F0B1FCFA20800000F0FDF91B4800F098F912
:4003C0000522002102A800F07EFE00F07BF90F236B4418700CE0200000F0FCF80F246C440122210002A800F0A8FE00F06BF920700F236B441C780D2CEDD101226B46D91D61
:4004000002A800F09AFE002CDAD06A46074902A800F062FE0098FFF765FF054800F068F9CEE7C046C1020000F01C0000FC1C0000F81C0000F0B50025002711E0BB00C658B9
:40044000F3B2FF22964308E06A008A181478A419527822700135013BDBB2002BF4D10137072FEBD9F0BDC0460323044A1360044A13600022034B1A607047C0463000304081
:4004800030003140000E3F4010B50A00002100F01AFE10BD10B500F00DFE10BD10B500F0DDFD03680C2B00D1FEE7FEE710B50300084A1068C318084A9A1A802A02DC054AA6
:4004C000136005E000F0CAFD0C2303600120404210BDC046CC000020B801002070B50F4E0F4D13E029686B68AC68002202E001C901C30432A242FAD1E868002202E00021EB
:4005000002C304328242FAD11035013E002EE9D100F0AAFDFFF734FFFEE7C046010000005C21000010B50E4A136801218B43136000230AE0032B03D89A000A49505800E016
:4005400009489900094A885001332F2BF2D9FFF7E7FD034A116801230B43136010BDC04600001040000000009D0400000000002010B500F091F810BD10B500F039F810BDE6
:4005800010B5044A1368802109060B431360FFF7EFFF10BD0000244010B5064B1B78002B04D1FFF7E9FF0122024B1A70FFF7E8FF10BDC04676010020014B18687047C046D6
:4005C00040032440024B1B681F2018407047C04608032440044B1B681F221340082BF9D0024B18607047C0460802244040022440154A164B1A600023154A13601549164ADC
:400600001160164A16490A6007201649086016490B6006381549086015490A60154A1360042215490A6015490B6015490B6015490B6015490B6015490A60154A13601268A4
:40064000144B1A807047C0460F000002000024404000244001000A00480024400700008000032440040324401003244044002440000224400402244050002440880E2440FE
:40068000C80E2440480F2440080F2440C80F2440880F244078010020064A1168064B0B40902109040B431360044B1A88044B1A607047C04600010240FFFF0FFF78010020B8
:4006C000880F244010B5FFF77DFF002802D0FFF773FF00E00020054B1A68D8239B001A4203D01A00014B1A60002010BDC00F244070B50500002402E0FFF76CFF0134285D84
:400700000028F9D170BDC04604490A68D2B208239A43C00018401043086070470000044004490A68D2B202239A434000184010430860704700000440044A1368DBB2012170
:400740008B430840184310607047C0460000044004490A68D2B204239A438000184010430860704700000440024B1B68012018407047C0460C002E401F2318401E3B83408C
:40078000014A13607047C04600E100E001BE704770B504000D001F2802D90020FFF7F6FF1034A40080239B059C4664442068256070BDC04610B5040006E0084B586800F07D
:4007C000C7FA074B9C46644480231B029C42F4D8024B9868604300F0BBFA10BDD00000200080FFFF10B5034B1B7B584300F0B0FA10BDC046D0000020F0B557464E46C0B437
:4008000083B0040000F0ADFA0190E71E2D2F74D83F4B1B78DBB29C4208D83E4B1B78DBB29A463D4B1B78DBB2994631E03B4B1B78DBB29C4208D83A4B1B78DBB29A46394BB6
:400840001B78DBB2994623E0374B1B78DBB29C4208D8364B1B78DBB29A46354B1B78DBB2994615E0334B1B78DBB29C4208D8324B1B78DBB29A46314B1B78DBB2994607E0E6
:400880002F4B1B78DBB29A462E4B1B78DBB299462D4BDE5D2F2E09D92A2C07D919222B4B1A60052000F054FA192503E0274B1D683F231D40B54206D9234BDA5D234B1A6056
:4008C000052000F045FA1F4B9C4664442378DBB21F4A13601F4B52461A601F4B4A461A600520FFF77FFFB5420AD2174BDA5D174B1A60052000F02CFA02E00020FFF746FF63
:40090000019800F032FA03B00CBC91469A46F0BD40F3FF0F41F3FF0F42F3FF0F43F3FF0F44F3FF0F45F3FF0F46F3FF0F47F3FF0F48F3FF0F49F3FF0F4AF3FF0F4BF3FF0FD5
:400940004CF3FF0F4DF3FF0F7C1F00002CFF0B4028FF0B401CFF0B4020FF0B4010B504000F4A116801230B4313600E4A0E4B1A600E4A1368802109020B431360002809D19C
:4009800000200CE00120FFF72DFFFFF7EDFE002804D1013C002CF5D1102000E0002010BD60F02E400220000078002E4010002E40034B1868C0231B02184000D001207047CC
:4009C00000010B4010B50D4B1A6801218A431A601A68022082431A60094A10683024A043203C204310601068093CA043014311601A68802109060A431A6010BD00F02E4016
:400A000000FF2E4070B51D4B1B6801241C40002802D0012816D02BE0184B19680122914319601968022081431960154B19682E3081432038014319601968093881430A4385
:400A40001A6018E00D4B1A6802218A431A600C4A10680725A84301431160116830208143103801431160196801220A431A6002E00020FFF78BFE200070BDC04600F02E40FF
:400A800000FF2E4010B500F06CF9044A1368C02109020B43136000F068F910BD00010B4010B500F05EF908490A68084B1A408024E40122430A600A6813408022120213432A
:400AC0000B6000F052F910BD00010B40FF3FFFFF70B5050000F045F90400FFF769FF002803D0FFF7DDFF012100E0002108482840084A1568084B2B4018431060136801299C
:400B000001D1FFF7BFFF200000F02FF970BDC0460404040010020B40FBFBFBFF10B5244B1B685B0715D5234B5B685B070ED5224B596A042001401F4C62688A4362605A6AD5
:400B400082435A629B69002B00D098470420FFF7BFFF174B1B685B0518D5164B5B685B0510D5154B596A8022D2001140114842688A434260596A114A0A405A62DB69002BB6
:400B800000D098478020C000FFF7A2FF084B1B685B030CD5074B5B685B0304D5064B1B6A002B00D098478020C002FFF791FF10BD10020B40E40000207C010020FFFBFFFFD3
:400BC00010B500F0CEF80B4A117820230B43DBB2137009490A7810231A43D2B20A70074A11780B43DBB2137000F0BFF8FF2000F09FF810BD93000F4091000F4090000F40A6
:400C0000014B1878C0B2704761000F40014B1878C0B2704760000F40034B1B785B07FBD5024B18807047C04661000F4084100F4010B501E00E4B1B880E4B1B789B06F9D407
:400C400000F08FF80C490A78012401231A43D2B20A700A78A2430A70084A11780B43DBB213701378A343137000F07FF810BDC046A4100F4060000F4092000F4093000F40C5
:400C800010B51F22064B1A70FFF7D2FFFFF7B8FFFFF7BCFF0023034A1370034A137010BD83000F4081000F4080000F4010B5064B1B78002B04D1FFF7E3FF0122024B1A70B2
:400CC000FFF77EFF10BDC046A4010020014B58647047C0460000002010B5040000F041F8044A1168044B0B40A4031C43146000F03CF810BD00E400E0FF3FFFFF0222014BD6
:400D00001A60704700E100E00222014B1A60704780E100E010B50400FFF7F6FF2000FFF7D5FF0320FFF7D8FFFFF7E8FF10BDC046044B1B68002BFBDB0002034B1843014BD7
:400D4000186070470000014040000080000000000230800803D00138FDD1C046C046C0467047EFF3108072B6704780F310887047002243088B4274D303098B425FD3030A3A
:400D80008B4244D3030B8B4228D3030C8B420DD3FF22090212BA030C8B4202D31212090265D0030B8B4219D300E0090AC30B8B4201D3CB03C01A5241830B8B4201D38B038F
:400DC000C01A5241430B8B4201D34B03C01A5241030B8B4201D30B03C01A5241C30A8B4201D3CB02C01A5241830A8B4201D38B02C01A5241430A8B4201D34B02C01A52413A
:400E0000030A8B4201D30B02C01A5241CDD2C3098B4201D3CB01C01A524183098B4201D38B01C01A524143098B4201D34B01C01A524103098B4201D30B01C01A5241C30888
:400E40008B4201D3CB00C01A524183088B4201D38B00C01A524143088B4201D34B00C01A5241411A00D20146524110467047FFE701B5002000F0F0F802BDC0460029F7D074
:400E800076E7704703460B437FD4002243088B4274D303098B425FD3030A8B4244D3030B8B4228D3030C8B420DD3FF22090212BA030C8B4202D31212090265D0030B8B423D
:400EC00019D300E0090AC30B8B4201D3CB03C01A5241830B8B4201D38B03C01A5241430B8B4201D34B03C01A5241030B8B4201D30B03C01A5241C30A8B4201D3CB02C01A56
:400F00005241830A8B4201D38B02C01A5241430A8B4201D34B02C01A5241030A8B4201D30B02C01A5241CDD2C3098B4201D3CB01C01A524183098B4201D38B01C01A5241BB
:400F400043098B4201D34B01C01A524103098B4201D30B01C01A5241C3088B4201D3CB00C01A524183088B4201D38B00C01A524143088B4201D34B00C01A5241411A00D20C
:400F800001465241104670475DE0CA0F00D04942031000D34042534000229C4603098B422DD3030A8B4212D3FC22890112BA030A8B420CD3890192118B4208D38901921113
:400FC0008B4204D389013AD0921100E08909C3098B4201D3CB01C01A524183098B4201D38B01C01A524143098B4201D34B01C01A524103098B4201D30B01C01A5241C30841
:401000008B4201D3CB00C01A524183088B4201D38B00C01A5241D9D243088B4201D34B00C01A5241411A00D20146634652415B10104601D34042002B00D5494270476346B2
:401040005B1000D3404201B5002000F005F802BD0029F8D016E770477047C046014B18687047C0464C0100200E4B70B500251E000D4CE41AA410A54204D0AB00F35898477A
:401080000135F8E701F058F8084B00251E00084CE41AA410A54204D0AB00F35898470135F8E770BD4421000044210000442100004C210000002310B59A4203D0CC5CC454F9
:4010C0000133F9E710BD03008218934202D019700133FAE7704700000EB4812370B59DB002AC21AD9B0040CDA3810290069000F01DF80B4B60606362002360610948636353
:40110000A364013BE38132002B0021000068019500F082F81DB070BC08BC03B01847C046291100004C010020002070470023C25C0133002AFBD1581E7047030010B51C78DB
:40114000002C0AD00133FAE70C781C70002C07D0002A00D15A7001330131013A541CF3D110BD70B50E0014004B1C02D10120404232E0938920229343626BA381CDB2636835
:40118000002A0ED0A26B934205DA2368013B23601E70636810E0210000F066FC0028F4D0E4E721692268002908D0914206D2511E0878854202D1216001330BE02364230016
:4011C000443363630323A36323004633E2631E70236001232800636070BD10B50C00496B00290ED023004433994201D000F086FC0020236C60636360834202D0E36B236077
:4012000009E0236920222360002301206360A38940421343A38110BDF0B5B84C0D00A54403930023009048934993862005AB4A93BE234000019202A9B14A5B000918CA50B6
:4012400004331E00AF4A02A90918CA50019B1A78002A00D149E10821AB4C23689B185B780B4023D06B68002B11DD2B6821681A788A18082152780A4214D0499A013302926E
:40128000013249926A682B60013A6A60EAE7862202AB52009B189B5929000098029398470028E2D0019F01370197CFE7019914004F1C252A55D1479345934B782A2B02D13F
:4012C0001A3B459301373C000A2221780B00303B092B07D8479B013401935343303B59184791F2E7894F0322380000F0FBFB002807D00123C01B8340459A01341343019258
:401300004593671C2478672C18D8652C00D38BE0472C08D8452C00D386E0002C00D1E6E0252C1ED082E05B2C56D002D8582C41D07CE0632C5ED0642C45D077E0702C33D033
:4013400007D86E2C5ED040D8692C6FD10023469340E0752C37D0782C2CD00223732C47D064E06B68002B0EDD2B681A78944200D0BBE001336A682B60499B013A019301338F
:401380006A60499390E7862202AB52009B189B5929000098019398470028E5D04898002800D09EE00138A4E0459B01932023019A13434593459B01938023019A9B0013437B
:4013C0004593102302E00A2300E00823469304236E2C0DDC03230BE0390005A800F0FCF9459B070001934023019A1343459301234B931FE0459B01934023019A1343459321
:401400000023F5E74599CB0600D54DE7039B499AC80704D5191D03911B681A8044E7191D03911B681A603FE70523E1E703234B93073346936B68002B04DD459B01935B0612
:4014400017D51FE0862202AB52009B189B5929000098019398470028EFD09FE7499A0192013249926A68013A6A60002A14DD01332B602B6824491A7809688A1808215278C5
:401480000A42EBD14B9B022B12DC03AB2A0045A9009800F03FF81EE0862202AB52009B189B5929000098019398470028E1D075E7042B06DC03AB2A0045A9009800F08CF806
:4014C00009E0134B002B00D1EEE603AB2A0045A9009800E000BF012807D0022800D0E3E65CE7AB895B0604D501E0489801E001204042A7239B009D44F0BDC04664FDFFFFC7
:4015000063110000DB11000050010020AC1F000000000000F7B515008A6801900C00002A06D18A69511E8A41012152420A43A2602268D20603D41A68111D19601768002685
:40154000A06900281ED1102223680136134203D12B681B783B7001372A686B6801322A60A268013B013A6B60A260002A1ED0002BE6DCC0235B00E35829000198984700286E
:40158000DED013E0012806D12B6862691B78D35C002BD8D11AE0022808D12B680D4A1B781268D31808225B781342CCD010232268134006D1E2680132E260A269002A00D01E
:4015C0003B70236900209E19266101E0002EEDD1FEBDC04650010020F0B50C008DB00293774B0590160009AA23CB23C2754B0693A369032B01D0744B0693AE220020A3682A
:401600005200591E0490914205D95E3BFF3B04935E23FF33A36023001C330193D023002722681B0113432360019B0393336809A81978BB000222185800F054FA00283BD00E
:40164000012F0DD16368002B06D1083322686360F933FF33134323605C4B226813400EE0022F0DD1C02180222368C90019409200914224D1F13AFF3A6260F03213432360A4
:40168000A3685A1EA260002B16D0039B5D1C33685A1C32601B78039A039513707368013B7360002B08DCC0235B00E3583100059807939847002847D10137032FB6D16368DA
:4016C000002B01D10A3363601021002763686069C91A3F4BC91800F07FF8039DA368002B33D0326860691178405C00282DD030290DD1802021680001014208D0049A013774
:40170000002A0BD0013A01330492A36006E02168304B0B40236013782B7001357368013B7360002B03DD33680133336008E0C0235B00E3583100059803939847002804D190
:40174000A368013BA360C9E700272368DB050ED5019B9D4207D9BE23013D5B002978E358320005989847019B01209D4225D0102223681A401AD12A70636801990598069EC8
:40178000B047029B22681B68910607D4D10705D502991A1D0A601B68188004E002991A1D0A601B681860E3680133E3600020019BED1A2369ED195D1925610DB0F0BDC0466F
:4017C000B01F00003D18000061190000FFFAFFFFBC1F0000FFF6FFFF70B50B785E2B02D04A1C002502E001254B788A1C0100441CFF340D700131A142FBD1002B01D1501E2A
:401800001BE001214D401100C5540C784A1C2D2C07D05D2C10D0002C01D02300F3E708000BE04E785D2EF8D0B342F6DC02310133C5549E42FBDCE8E7100070BDF0B51E007E
:40184000454B87B01B680192029308220B00059003911C7802995D1C09194878104001D02B00F6E72D2C04D19D1C5C780123009304E000902B2C01D15C789D1C002E02D049
:40188000102E0AD162E0302C5ED120222B789343582B54D110266C780235009F31007B1E9F412E4BFF183800FFF7E8FA380004913100FFF75DFA0023032207009446180019
:4018C000029A121951780422114201D0303C07E06246114017D03722012900D02032A41AA64210DD5A1C0BD0B84207D802D1049B9C4203DC70430123201801E001235B4299
:401900002C780135DCE75A1C0BD10098059A431E9841124BC01822231360019B002B0AD117E0009A002A00D04042019A002A10D0039A002B00D06A1E019B1A6009E0302493
:40194000002EAAD10826A8E70A26A6E7302C9CD0A3E707B0F0BDC04650010020FFFFFF7FF0B51E003F4B87B01B680491029317000B00082105901C78029A5D1C12195278EC
:401980000A4001D02B00F6E72D2C04D19D1C5C780123019304E001922B2C01D15C789D1C002E02D0102E0AD157E0302C53D120222B789343582B49D110266C7802350120CA
:4019C00031004042FFF7D4F90390012031004042FFF754FA00238C461800029A121951780422114201D0303C07E00322114017D03432012900D02032A41AA64210DD002BBF
:401A000009DB039B984206D801D1644503DC70430123201801E001235B422C780135DCE7002B07DA22230120059A40421360002F09D115E0019A002A00D04042002F0FD09B
:401A4000049A002B00D06A1E3A6009E03024002EB5D10826B3E70A26B1E7302CA7D0AEE707B0F0BD500100200B00F7B54D6B44330C009D421BD18026F600310000F08AF8F1
:401A8000002802D10120404225E023006063A66346331A78104BC254230045331A780F4BC2542A780E4BC254C018206012E08E6B290073001A00019300F0CCF8051EE1D055
:401AC0008719010032003800FFF7F4FA019B27606563A3630020FEBDFF030000FE030000FD030000C9B28218904204D003788B4202D00130F8E700207047000070B5050042
:401B0000002944D00C1F2368002B00DAE418280000F0D8F81E4A13681100002B02D16360146031E0A3420DD92268A018834203D118685B688218226063600C6024E0A24273
:401B400003D813005A68002AF9D11E689819A0420BD12168711858181960824214D110685268411819605A600EE0A04202D90C232B6009E021686018824203D11068526851
:401B80004118216062605C60280000F09CF870BDAC010020032370B5CD1C9D43083506000C2D01D20C2501E0002D01DBA94202D90C23336048E0300000F084F8234B1C686B
:401BC0001A002100002913D00B685B1B0DD40B2B02D90B60CC181EE08C4202D1636813601AE04B6863600C0016E00C004968E9E7174C2368002B03D1300000F051F82060C2
:401C00002900300000F04CF8431C18D00323C41C9C43A0420DD12560300000F054F8200007220B30231D9043C31A0ED05A42E2500BE0211A300000F033F8431CEBD10C235F
:401C40003000336000F03FF8002070BDAC010020A8010020F8B506000C001500002904D11100FFF797FF040018E0002A03D1FFF745FF2C0012E000F027F885420ED92900F0
:401C80003000FFF787FF071E07D021002A00FFF711FA21003000FFF731FF3C002000F8BD002370B5064C050008002360FEF7FEFB431C03D12368002B00D02B6070BDC04619
:401CC000B0010020704770470B1F1A68101F002A04DA891804390B68D01804387047000000000000039F250D9949411F010900004C414220332E32200D0A00002564000034
:401D000000300F40800200330F40000100400F400004000080320F40FC1E000080000000831F01030201030C08040A1A0C9B0D090F06109A1201141B15021680170D189BC7
:401D400019051B0A1C201EC020E42210242426C8289B2C022E643201330F341E36E03AA03B083E045440580459045B045C115D105F018C108E2791019501960298389D0176
:401D8000A00DA210A414A62BB203B43CB701B820BF40D409D804D904DB04DC01DD10DF0100800122024007020A550E2811201202138A15021708181019601A011E28220821
:401DC00027013218378A3982468047015C225D805F0460106120624066808A10C08BC26FC43FCCD6CE09D6F0D81EE2803A0C403441054260470B481049FF4AFF4BFF4C038A
:401E00004E704F48500458045A045C035D015F0162C0644065026610671268C069026B126C406D026E406F02008A03080A451008110812021301184019811B181D04200A0F
:401E400021412212230A29402A01300832123340382039843B0140404140470A480449024A024B044E024F205001512052015504580259016208684A69046A546B40730100
:401E80008012811083018D048E049201940295829674970499409C029D829F0AA20CA440A530A602A708A821B708C00FC20BC40FCA09CC0FCE0FD0C9D23CD802E250EA1047
:401EC0005B028A80D640528057806C048C048F80A280B702D460DA80010A100A01000F403F300F4026310F401E320F404C330F4003400F4009410F4002600F40AC1A12004A
:401F00001418200202180002099C0003083301440002001809C10038081A000009820000C0000000010008000E1870000113FE00010F10E0080000A0000051006105400036
:401F400000DEF0C02BFFFFFF2200F048040000000000022804040404111100010000C00040021012C002001240024002000000000000000000000000000000000304050662
:401F80000708090A0B0C0E0F101112131415161718191B1C1D1E1F2021222325262728292A2B2E2F3031323334354300686C4C00CE1F0000D11F0000D41F0000412D4661FB
:401FC0002D66383930313233343536375D002B2D0030300078580000202020202020202020282828282820202020202020202020202020202020202088101010101010103C
:402000001010101010101010040404040404040404041010101010101041414141414101010101010101010101010101010101010101011010101010104242424242420200
:4020400002020202020202020202020202020202020202101010102000000000000000000000000000000000000000000000000000000000000000000000000000000000DA
:402080000000000000000000000000000000000000000000000000000000000000000000000000000000000000000000000000000000000000000000000000000000000020
:4020C00000000000000000000000000000000000000000000000000000000000000000000000000000000000000000000000000000000000000000000000000000000000E0
:402100000000000000000000000000000000000000000000000000000000000000000000000000000000000000000000000000000000000000000000F8B5C046F8BC08BC74
:402140009E4670478902000025050000F8B5C046F8BC08BC9E4670476102000070210000C000002098000000600000000000000000000000FF10FF20FF40FF80B8010020B8
:40218000010000000000E02EC05D00001800000000366E01F00000000404040000000000D8200000F82000001821000000000000000000000000000000000000AA1F000028
:4021C000000000000000000000000000000000000000000000000000000000000000000000000000000000000000000000000000000000000000000000000000EC000020D3
:40220000D71F0000000000000000000000000000000000000000000000000000000000000000000000000000000000000000000000000000000000000000000000000000A8
:40224000000000000000000000000000000000000000000000000000000000000000000000000000000000000000000000000000000000000000000000000000000000005E
:40228000000000000000000000000000000000000000000000000000000000000000000000000000000000000000000000000000000000000000000000000000000000001E
:4022C00000000000000000000000000000000000000000000000000000000000000000000000000000000000000000000000000000000000000000000000000000000000DE
:40230000000000000000000000000000000000000000000000000000000000000000000000000000000000000000000000000000000000000000000000000000000000009D
:020000040003F7
:0200000490303A
:02000000589313
:0200000490402A
:4000000000000000000000000000000000000000000000000000000000000000000000000000000000000000000000000000000000000000000000000000000000000000C0
:400040000000000000000000000000000000000000000000000000000000000000000000000000000000000000000000000000000000000000000000000000000000000080
:0200000490501A
:0C00000000021A1711AA00011A216A3D23
:0200000490600A
:0100000001FE
:00000001FF